:100000000C942A000C943F000C943F000C943F0089
:100010000C943F000C943F000C943F000C943F0064
:100020000C943F000C943F000C943F000C943F0054
:100030000C943F000C943F000C943F000C943F0044
:100040000C943F000C943F000C943F000C943F0034
:100050000C943F0011241FBECFE5D4E0DEBFCDBF1E
:1000600010E0A0E6B0E0E6E7F2E002C005900D92F5
:10007000AA37B107D9F70E9424010C9439010C94D6
:10008000000011B880E280B984E086BF089584EA58
:1000900086BF06B607FEFDCF089584E986BF0895A2
:1000A00083B984E886BF06B607FEFDCF81B1887F9D
:1000B0000895CF9320E1829FC0011124C82FC8600A
:1000C000662311F0C82FC9600E9447008EE40E9489
:1000D00050008C2F84600E9450000E944D0082E0EE
:1000E0008A95F1F700C00E9447008EE40E945000FC
:1000F0008C2F0E9450000E944D0025E82A95F1F7B0
:100100000000CF910895CF93DF93C82FD62F82950B
:100110008F700E9459006D2F8C2F8F70DF91CF91BF
:100120000C9459002FEF80E792E0215080409040DE
:10013000E1F700C0000060E083E00E9459008FE119
:100140009EE40197F1F700C0000060E083E00E94A8
:1001500059008FE19EE40197F1F700C0000060E0D4
:1001600083E00E9459008FE19EE40197F1F700C0FF
:10017000000060E082E00E9459008FE19EE4019758
:10018000F1F700C0000060E088E20E9483008FEC7D
:1001900097E00197F1F700C0000060E088E00E945E
:1001A00083008FEC97E00197F1F700C0000060E05A
:1001B00081E00E9483008FE097E20197F1F700C091
:1001C000000060E086E00E9483008FEC97E00197DA
:1001D000F1F700C0000060E08CE00E9483008FEC2B
:1001E00097E00197F1F700C00000089560E081E01A
:1001F0000E9483008FE097E20197F1F700C00000B2
:100200000895CF93DF9300D0CDB7DEB720E030E480
:100210003A832983FE01E80FF11D8181860F60E09A
:1002200080680F900F90DF91CF910C948300CF9353
:10023000DF93EC018991811103C0DF91CF91089583
:1002400061E00E948300F6CF0E9441000E9492006C
:1002500060E080E00E94010180E690E00E941701CA
:1002600060E081E00E9401018DE690E00E941701AC
:06027000FFCFF894FFCF60
:10027600476F6F64206D6F726E696E67004D6F61B8
:0A0286006D656E2041796D616E0018
:00000001FF
