:100000000C942A000C9434000C9434000C943400AA
:100010000C9434000C9434000C9434000C94340090
:100020000C9434000C9434000C9434000C94340080
:100030000C9434000C9434000C9434000C94340070
:100040000C9434000C9434000C9434000C94340060
:100050000C94340011241FBECFE5D4E0DEBFCDBF29
:100060000E945F000C946C000C94000081B3837FAD
:1000700081BB82B38C6082BB089582990DC08FE3EF
:100080009CE90197F1F700C0000080B382FB88274C
:1000900080F991E08927089580E0089583990DC043
:1000A0008FE39CE90197F1F700C0000080B383FB68
:1000B000882780F991E08927089580E008950E94BB
:1000C0003600B89A0E943D008111C09A0E944E00ED
:0C00D0008823C1F3C098F6CFF894FFCF4E
:00000001FF
