:100000000C942A000C943F000C943F000C943F0089
:100010000C943F000C943F000C943F000C943F0064
:100020000C943F000C943F000C943F000C943F0054
:100030000C943F000C943F000C943F000C943F0044
:100040000C943F000C943F000C943F000C943F0034
:100050000C943F0011241FBECFE5D4E0DEBFCDBF1E
:1000600010E0A0E6B0E0E2E3F3E002C005900D92FC
:10007000AA37B107D9F70E944D010C9497010C944F
:10008000000081B3837F81BB82B38C6082BB089503
:1000900082990DC08FE39CE90197F1F700C0000041
:1000A00080B382FB882780F991E08927089580E05A
:1000B000089583990DC08FE39CE90197F1F700C083
:1000C000000080B383FB882780F991E08927089599
:1000D00080E0089511B880E280B984E086BF089579
:1000E00084EA86BF06B607FEFDCF089584E986BF81
:1000F000089583B984E886BF06B607FEFDCF81B1B7
:10010000887F0895CF9320E1829FC0011124C82FDA
:10011000C860662311F0C82FC9600E9470008EE489
:100120000E9479008C2F84600E9479000E947600E2
:1001300082E08A95F1F700C00E9470008EE40E9470
:1001400079008C2F0E9479000E94760025E82A957C
:10015000F1F70000CF910895CF93DF93C82FD62FEA
:1001600082958F700E9482006D2F8C2F8F70DF918F
:10017000CF910C9482002FEF80E792E021508040D5
:100180009040E1F700C0000060E083E00E94820040
:100190008FE19EE40197F1F700C0000060E083E08A
:1001A0000E9482008FE19EE40197F1F700C00000F9
:1001B00060E083E00E9482008FE19EE40197F1F706
:1001C00000C0000060E082E00E9482008FE19EE4B7
:1001D0000197F1F700C0000060E088E20E94AC00E7
:1001E0008FEC97E00197F1F700C0000060E088E035
:1001F0000E94AC008FEC97E00197F1F700C000007F
:1002000060E081E00E94AC008FE097E20197F1F797
:1002100000C0000060E086E00E94AC008FEC97E038
:100220000197F1F700C0000060E08CE00E94AC0094
:100230008FEC97E00197F1F700C00000089560E0AF
:1002400081E00E94AC008FE097E20197F1F700C0D7
:1002500000000895CF93DF9300D0CDB7DEB720E044
:1002600030E43A832983FE01E80FF11D8181860F76
:1002700060E080680F900F90DF91CF910C94AC00FC
:10028000CF93DF93EC018991811103C0DF91CF916E
:10029000089561E00E94AC00F6CF00D000D0CDB749
:1002A000DEB70E9441000E946A000E94BB0060E02D
:1002B00080E00E942A0180E690E00E94400160E018
:1002C00081E00E942A018DE690E00E94400110E04A
:1002D00000E20E944800882399F01A3008F41F5F5A
:1002E000829BFECF60E081E00E942A0180E3810FC3
:1002F00089830A830B831C82CE0101960E944001F0
:100300000E945900882329F311111150839BFECFBD
:1003100060E081E00E942A0180E3810F89830A83E3
:100320000B831C82CE0101960E944001D2CFF8942B
:02033000FFCFFD
:100332004D6F746F722053706565643A00302020EF
:0A03420020202020202020200000B1
:00000001FF
